{
	"important/enum.sol": {
		"enum1": {
			"abi": [
				{
					"inputs": [],
					"name": "changeOwner",
					"outputs": [],
					"stateMutability": "nonpayable",
					"type": "function"
				},
				{
					"inputs": [],
					"name": "lottery",
					"outputs": [
						{
							"internalType": "uint256",
							"name": "",
							"type": "uint256"
						}
					],
					"stateMutability": "view",
					"type": "function"
				},
				{
					"inputs": [],
					"name": "owner",
					"outputs": [],
					"stateMutability": "nonpayable",
					"type": "function"
				},
				{
					"inputs": [],
					"name": "u1",
					"outputs": [
						{
							"internalType": "enum enum1.user",
							"name": "",
							"type": "uint8"
						}
					],
					"stateMutability": "view",
					"type": "function"
				}
			],
			"devdoc": {
				"kind": "dev",
				"methods": {},
				"version": 1
			},
			"evm": {
				"assembly": "    /* \"important/enum.sol\":68:602  contract enum1... */\n  mstore(0x40, 0x80)\n    /* \"important/enum.sol\":149:161  user.allowed */\n  0x00\n    /* \"important/enum.sol\":134:161  user public u1=user.allowed */\n  dup1\n  exp(0x0100, 0x00)\n  dup2\n  sload\n  dup2\n  0xff\n  mul\n  not\n  and\n  swap1\n  dup4\n  0x02\n  dup2\n  gt\n  iszero\n  tag_1\n  jumpi\n  tag_2\n  tag_3\n  jump\t// in\ntag_2:\ntag_1:\n  mul\n  or\n  swap1\n  sstore\n  pop\n    /* \"important/enum.sol\":267:271  1000 */\n  0x03e8\n    /* \"important/enum.sol\":247:271  uint public lottery=1000 */\n  0x01\n  sstore\n    /* \"important/enum.sol\":68:602  contract enum1... */\n  callvalue\n  dup1\n  iszero\n  tag_4\n  jumpi\n  0x00\n  dup1\n  revert\ntag_4:\n  pop\n  jump(tag_5)\n    /* \"#utility.yul\":7:187   */\ntag_3:\n    /* \"#utility.yul\":55:132   */\n  0x4e487b7100000000000000000000000000000000000000000000000000000000\n    /* \"#utility.yul\":52:53   */\n  0x00\n    /* \"#utility.yul\":45:133   */\n  mstore\n    /* \"#utility.yul\":152:156   */\n  0x21\n    /* \"#utility.yul\":149:150   */\n  0x04\n    /* \"#utility.yul\":142:157   */\n  mstore\n    /* \"#utility.yul\":176:180   */\n  0x24\n    /* \"#utility.yul\":173:174   */\n  0x00\n    /* \"#utility.yul\":166:181   */\n  revert\n    /* \"important/enum.sol\":68:602  contract enum1... */\ntag_5:\n  dataSize(sub_0)\n  dup1\n  dataOffset(sub_0)\n  0x00\n  codecopy\n  0x00\n  return\nstop\n\nsub_0: assembly {\n        /* \"important/enum.sol\":68:602  contract enum1... */\n      mstore(0x40, 0x80)\n      callvalue\n      dup1\n      iszero\n      tag_1\n      jumpi\n      0x00\n      dup1\n      revert\n    tag_1:\n      pop\n      jumpi(tag_2, lt(calldatasize, 0x04))\n      shr(0xe0, calldataload(0x00))\n      dup1\n      0x1aa35610\n      eq\n      tag_3\n      jumpi\n      dup1\n      0x62a09477\n      eq\n      tag_4\n      jumpi\n      dup1\n      0x8da5cb5b\n      eq\n      tag_5\n      jumpi\n      dup1\n      0xba13a572\n      eq\n      tag_6\n      jumpi\n    tag_2:\n      0x00\n      dup1\n      revert\n        /* \"important/enum.sol\":134:161  user public u1=user.allowed */\n    tag_3:\n      tag_7\n      tag_8\n      jump\t// in\n    tag_7:\n      mload(0x40)\n      tag_9\n      swap2\n      swap1\n      tag_10\n      jump\t// in\n    tag_9:\n      mload(0x40)\n      dup1\n      swap2\n      sub\n      swap1\n      return\n        /* \"important/enum.sol\":454:599  function changeOwner() public{... */\n    tag_4:\n      tag_11\n      tag_12\n      jump\t// in\n    tag_11:\n      stop\n        /* \"important/enum.sol\":278:446  function owner() public {... */\n    tag_5:\n      tag_13\n      tag_14\n      jump\t// in\n    tag_13:\n      stop\n        /* \"important/enum.sol\":247:271  uint public lottery=1000 */\n    tag_6:\n      tag_15\n      tag_16\n      jump\t// in\n    tag_15:\n      mload(0x40)\n      tag_17\n      swap2\n      swap1\n      tag_18\n      jump\t// in\n    tag_17:\n      mload(0x40)\n      dup1\n      swap2\n      sub\n      swap1\n      return\n        /* \"important/enum.sol\":134:161  user public u1=user.allowed */\n    tag_8:\n      0x00\n      dup1\n      sload\n      swap1\n      0x0100\n      exp\n      swap1\n      div\n      0xff\n      and\n      dup2\n      jump\t// out\n        /* \"important/enum.sol\":454:599  function changeOwner() public{... */\n    tag_12:\n        /* \"important/enum.sol\":501:513  user.allowed */\n      0x00\n        /* \"important/enum.sol\":497:513  u1==user.allowed */\n      0x02\n      dup2\n      gt\n      iszero\n      tag_20\n      jumpi\n      tag_21\n      tag_22\n      jump\t// in\n    tag_21:\n    tag_20:\n        /* \"important/enum.sol\":497:499  u1 */\n      0x00\n      dup1\n      sload\n      swap1\n      0x0100\n      exp\n      swap1\n      div\n      0xff\n      and\n        /* \"important/enum.sol\":497:513  u1==user.allowed */\n      0x02\n      dup2\n      gt\n      iszero\n      tag_23\n      jumpi\n      tag_24\n      tag_22\n      jump\t// in\n    tag_24:\n    tag_23:\n      sub\n        /* \"important/enum.sol\":494:591  if(u1==user.allowed)... */\n      tag_25\n      jumpi\n        /* \"important/enum.sol\":531:547  user.not_allowed */\n      0x01\n        /* \"important/enum.sol\":528:530  u1 */\n      0x00\n      dup1\n        /* \"important/enum.sol\":528:547  u1=user.not_allowed */\n      0x0100\n      exp\n      dup2\n      sload\n      dup2\n      0xff\n      mul\n      not\n      and\n      swap1\n      dup4\n      0x02\n      dup2\n      gt\n      iszero\n      tag_26\n      jumpi\n      tag_27\n      tag_22\n      jump\t// in\n    tag_27:\n    tag_26:\n      mul\n      or\n      swap1\n      sstore\n      pop\n        /* \"important/enum.sol\":494:591  if(u1==user.allowed)... */\n      jump(tag_28)\n    tag_25:\n        /* \"important/enum.sol\":579:591  user.allowed */\n      0x00\n        /* \"important/enum.sol\":576:578  u1 */\n      dup1\n      0x00\n        /* \"important/enum.sol\":576:591  u1=user.allowed */\n      0x0100\n      exp\n      dup2\n      sload\n      dup2\n      0xff\n      mul\n      not\n      and\n      swap1\n      dup4\n      0x02\n      dup2\n      gt\n      iszero\n      tag_29\n      jumpi\n      tag_30\n      tag_22\n      jump\t// in\n    tag_30:\n    tag_29:\n      mul\n      or\n      swap1\n      sstore\n      pop\n        /* \"important/enum.sol\":494:591  if(u1==user.allowed)... */\n    tag_28:\n        /* \"important/enum.sol\":454:599  function changeOwner() public{... */\n      jump\t// out\n        /* \"important/enum.sol\":278:446  function owner() public {... */\n    tag_14:\n        /* \"important/enum.sol\":320:332  user.allowed */\n      0x00\n        /* \"important/enum.sol\":316:332  u1==user.allowed */\n      0x02\n      dup2\n      gt\n      iszero\n      tag_32\n      jumpi\n      tag_33\n      tag_22\n      jump\t// in\n    tag_33:\n    tag_32:\n        /* \"important/enum.sol\":316:318  u1 */\n      0x00\n      dup1\n      sload\n      swap1\n      0x0100\n      exp\n      swap1\n      div\n      0xff\n      and\n        /* \"important/enum.sol\":316:332  u1==user.allowed */\n      0x02\n      dup2\n      gt\n      iszero\n      tag_34\n      jumpi\n      tag_35\n      tag_22\n      jump\t// in\n    tag_35:\n    tag_34:\n      sub\n        /* \"important/enum.sol\":313:379  if(u1==user.allowed)... */\n      tag_36\n      jumpi\n        /* \"important/enum.sol\":358:365  lottery */\n      0x01\n      0x00\n        /* \"important/enum.sol\":358:367  lottery-- */\n      dup2\n      sload\n      dup1\n      swap3\n      swap2\n      swap1\n      tag_37\n      swap1\n      tag_38\n      jump\t// in\n    tag_37:\n      swap2\n      swap1\n      pop\n      sstore\n      pop\n        /* \"important/enum.sol\":313:379  if(u1==user.allowed)... */\n    tag_36:\n        /* \"important/enum.sol\":403:404  0 */\n      0x00\n        /* \"important/enum.sol\":392:399  lottery */\n      sload(0x01)\n        /* \"important/enum.sol\":392:404  lottery == 0 */\n      sub\n        /* \"important/enum.sol\":389:438  if(lottery == 0)... */\n      tag_39\n      jumpi\n        /* \"important/enum.sol\":422:438  user.not_allowed */\n      0x01\n        /* \"important/enum.sol\":419:421  u1 */\n      0x00\n      dup1\n        /* \"important/enum.sol\":419:438  u1=user.not_allowed */\n      0x0100\n      exp\n      dup2\n      sload\n      dup2\n      0xff\n      mul\n      not\n      and\n      swap1\n      dup4\n      0x02\n      dup2\n      gt\n      iszero\n      tag_40\n      jumpi\n      tag_41\n      tag_22\n      jump\t// in\n    tag_41:\n    tag_40:\n      mul\n      or\n      swap1\n      sstore\n      pop\n        /* \"important/enum.sol\":389:438  if(lottery == 0)... */\n    tag_39:\n        /* \"important/enum.sol\":278:446  function owner() public {... */\n      jump\t// out\n        /* \"important/enum.sol\":247:271  uint public lottery=1000 */\n    tag_16:\n      sload(0x01)\n      dup2\n      jump\t// out\n        /* \"#utility.yul\":7:187   */\n    tag_22:\n        /* \"#utility.yul\":55:132   */\n      0x4e487b7100000000000000000000000000000000000000000000000000000000\n        /* \"#utility.yul\":52:53   */\n      0x00\n        /* \"#utility.yul\":45:133   */\n      mstore\n        /* \"#utility.yul\":152:156   */\n      0x21\n        /* \"#utility.yul\":149:150   */\n      0x04\n        /* \"#utility.yul\":142:157   */\n      mstore\n        /* \"#utility.yul\":176:180   */\n      0x24\n        /* \"#utility.yul\":173:174   */\n      0x00\n        /* \"#utility.yul\":166:181   */\n      revert\n        /* \"#utility.yul\":193:304   */\n    tag_42:\n        /* \"#utility.yul\":272:273   */\n      0x03\n        /* \"#utility.yul\":265:270   */\n      dup2\n        /* \"#utility.yul\":262:274   */\n      lt\n        /* \"#utility.yul\":252:298   */\n      tag_52\n      jumpi\n        /* \"#utility.yul\":278:296   */\n      tag_53\n      tag_22\n      jump\t// in\n    tag_53:\n        /* \"#utility.yul\":252:298   */\n    tag_52:\n        /* \"#utility.yul\":193:304   */\n      pop\n      jump\t// out\n        /* \"#utility.yul\":310:433   */\n    tag_43:\n        /* \"#utility.yul\":353:360   */\n      0x00\n        /* \"#utility.yul\":382:387   */\n      dup2\n        /* \"#utility.yul\":371:387   */\n      swap1\n      pop\n        /* \"#utility.yul\":388:427   */\n      tag_55\n        /* \"#utility.yul\":421:426   */\n      dup3\n        /* \"#utility.yul\":388:427   */\n      tag_42\n      jump\t// in\n    tag_55:\n        /* \"#utility.yul\":310:433   */\n      swap2\n      swap1\n      pop\n      jump\t// out\n        /* \"#utility.yul\":439:562   */\n    tag_44:\n        /* \"#utility.yul\":493:502   */\n      0x00\n        /* \"#utility.yul\":526:556   */\n      tag_57\n        /* \"#utility.yul\":550:555   */\n      dup3\n        /* \"#utility.yul\":526:556   */\n      tag_43\n      jump\t// in\n    tag_57:\n        /* \"#utility.yul\":513:556   */\n      swap1\n      pop\n        /* \"#utility.yul\":439:562   */\n      swap2\n      swap1\n      pop\n      jump\t// out\n        /* \"#utility.yul\":568:707   */\n    tag_45:\n        /* \"#utility.yul\":659:700   */\n      tag_59\n        /* \"#utility.yul\":694:699   */\n      dup2\n        /* \"#utility.yul\":659:700   */\n      tag_44\n      jump\t// in\n    tag_59:\n        /* \"#utility.yul\":654:657   */\n      dup3\n        /* \"#utility.yul\":647:701   */\n      mstore\n        /* \"#utility.yul\":568:707   */\n      pop\n      pop\n      jump\t// out\n        /* \"#utility.yul\":713:943   */\n    tag_10:\n        /* \"#utility.yul\":810:814   */\n      0x00\n        /* \"#utility.yul\":848:850   */\n      0x20\n        /* \"#utility.yul\":837:846   */\n      dup3\n        /* \"#utility.yul\":833:851   */\n      add\n        /* \"#utility.yul\":825:851   */\n      swap1\n      pop\n        /* \"#utility.yul\":861:936   */\n      tag_61\n        /* \"#utility.yul\":933:934   */\n      0x00\n        /* \"#utility.yul\":922:931   */\n      dup4\n        /* \"#utility.yul\":918:935   */\n      add\n        /* \"#utility.yul\":909:915   */\n      dup5\n        /* \"#utility.yul\":861:936   */\n      tag_45\n      jump\t// in\n    tag_61:\n        /* \"#utility.yul\":713:943   */\n      swap3\n      swap2\n      pop\n      pop\n      jump\t// out\n        /* \"#utility.yul\":949:1026   */\n    tag_46:\n        /* \"#utility.yul\":986:993   */\n      0x00\n        /* \"#utility.yul\":1015:1020   */\n      dup2\n        /* \"#utility.yul\":1004:1020   */\n      swap1\n      pop\n        /* \"#utility.yul\":949:1026   */\n      swap2\n      swap1\n      pop\n      jump\t// out\n        /* \"#utility.yul\":1032:1150   */\n    tag_47:\n        /* \"#utility.yul\":1119:1143   */\n      tag_64\n        /* \"#utility.yul\":1137:1142   */\n      dup2\n        /* \"#utility.yul\":1119:1143   */\n      tag_46\n      jump\t// in\n    tag_64:\n        /* \"#utility.yul\":1114:1117   */\n      dup3\n        /* \"#utility.yul\":1107:1144   */\n      mstore\n        /* \"#utility.yul\":1032:1150   */\n      pop\n      pop\n      jump\t// out\n        /* \"#utility.yul\":1156:1378   */\n    tag_18:\n        /* \"#utility.yul\":1249:1253   */\n      0x00\n        /* \"#utility.yul\":1287:1289   */\n      0x20\n        /* \"#utility.yul\":1276:1285   */\n      dup3\n        /* \"#utility.yul\":1272:1290   */\n      add\n        /* \"#utility.yul\":1264:1290   */\n      swap1\n      pop\n        /* \"#utility.yul\":1300:1371   */\n      tag_66\n        /* \"#utility.yul\":1368:1369   */\n      0x00\n        /* \"#utility.yul\":1357:1366   */\n      dup4\n        /* \"#utility.yul\":1353:1370   */\n      add\n        /* \"#utility.yul\":1344:1350   */\n      dup5\n        /* \"#utility.yul\":1300:1371   */\n      tag_47\n      jump\t// in\n    tag_66:\n        /* \"#utility.yul\":1156:1378   */\n      swap3\n      swap2\n      pop\n      pop\n      jump\t// out\n        /* \"#utility.yul\":1384:1564   */\n    tag_48:\n        /* \"#utility.yul\":1432:1509   */\n      0x4e487b7100000000000000000000000000000000000000000000000000000000\n        /* \"#utility.yul\":1429:1430   */\n      0x00\n        /* \"#utility.yul\":1422:1510   */\n      mstore\n        /* \"#utility.yul\":1529:1533   */\n      0x11\n        /* \"#utility.yul\":1526:1527   */\n      0x04\n        /* \"#utility.yul\":1519:1534   */\n      mstore\n        /* \"#utility.yul\":1553:1557   */\n      0x24\n        /* \"#utility.yul\":1550:1551   */\n      0x00\n        /* \"#utility.yul\":1543:1558   */\n      revert\n        /* \"#utility.yul\":1570:1741   */\n    tag_38:\n        /* \"#utility.yul\":1609:1612   */\n      0x00\n        /* \"#utility.yul\":1632:1656   */\n      tag_69\n        /* \"#utility.yul\":1650:1655   */\n      dup3\n        /* \"#utility.yul\":1632:1656   */\n      tag_46\n      jump\t// in\n    tag_69:\n        /* \"#utility.yul\":1623:1656   */\n      swap2\n      pop\n        /* \"#utility.yul\":1678:1682   */\n      0x00\n        /* \"#utility.yul\":1671:1676   */\n      dup3\n        /* \"#utility.yul\":1668:1683   */\n      sub\n        /* \"#utility.yul\":1665:1706   */\n      tag_70\n      jumpi\n        /* \"#utility.yul\":1686:1704   */\n      tag_71\n      tag_48\n      jump\t// in\n    tag_71:\n        /* \"#utility.yul\":1665:1706   */\n    tag_70:\n        /* \"#utility.yul\":1733:1734   */\n      0x01\n        /* \"#utility.yul\":1726:1731   */\n      dup3\n        /* \"#utility.yul\":1722:1735   */\n      sub\n        /* \"#utility.yul\":1715:1735   */\n      swap1\n      pop\n        /* \"#utility.yul\":1570:1741   */\n      swap2\n      swap1\n      pop\n      jump\t// out\n\n    auxdata: 0xa2646970667358221220089e8a2d458725d3a0d418b60d2323539d48a348cadada339134afc0d818cc5164736f6c63430008120033\n}\n",
				"bytecode": {
					"linkReferences": {},
					"object": "608060405260008060006101000a81548160ff0219169083600281111561002957610028610046565b5b02179055506103e860015534801561004057600080fd5b50610075565b7f4e487b7100000000000000000000000000000000000000000000000000000000600052602160045260246000fd5b61032a806100846000396000f3fe608060405234801561001057600080fd5b506004361061004c5760003560e01c80631aa356101461005157806362a094771461006f5780638da5cb5b14610079578063ba13a57214610083575b600080fd5b6100596100a1565b604051610066919061024d565b60405180910390f35b6100776100b2565b005b610081610147565b005b61008b6101d0565b6040516100989190610281565b60405180910390f35b60008054906101000a900460ff1681565b600060028111156100c6576100c56101d6565b5b60008054906101000a900460ff1660028111156100e6576100e56101d6565b5b0361011a5760016000806101000a81548160ff021916908360028111156101105761010f6101d6565b5b0217905550610145565b60008060006101000a81548160ff0219169083600281111561013f5761013e6101d6565b5b02179055505b565b6000600281111561015b5761015a6101d6565b5b60008054906101000a900460ff16600281111561017b5761017a6101d6565b5b036101995760016000815480929190610193906102cb565b91905055505b6000600154036101ce5760016000806101000a81548160ff021916908360028111156101c8576101c76101d6565b5b02179055505b565b60015481565b7f4e487b7100000000000000000000000000000000000000000000000000000000600052602160045260246000fd5b60038110610216576102156101d6565b5b50565b600081905061022782610205565b919050565b600061023782610219565b9050919050565b6102478161022c565b82525050565b6000602082019050610262600083018461023e565b92915050565b6000819050919050565b61027b81610268565b82525050565b60006020820190506102966000830184610272565b92915050565b7f4e487b7100000000000000000000000000000000000000000000000000000000600052601160045260246000fd5b60006102d682610268565b9150600082036102e9576102e861029c565b5b60018203905091905056fea2646970667358221220089e8a2d458725d3a0d418b60d2323539d48a348cadada339134afc0d818cc5164736f6c63430008120033",
					"opcodes": "PUSH1 0x80 PUSH1 0x40 MSTORE PUSH1 0x0 DUP1 PUSH1 0x0 PUSH2 0x100 EXP DUP2 SLOAD DUP2 PUSH1 0xFF MUL NOT AND SWAP1 DUP4 PUSH1 0x2 DUP2 GT ISZERO PUSH2 0x29 JUMPI PUSH2 0x28 PUSH2 0x46 JUMP JUMPDEST JUMPDEST MUL OR SWAP1 SSTORE POP PUSH2 0x3E8 PUSH1 0x1 SSTORE CALLVALUE DUP1 ISZERO PUSH2 0x40 JUMPI PUSH1 0x0 DUP1 REVERT JUMPDEST POP PUSH2 0x75 JUMP JUMPDEST PUSH32 0x4E487B7100000000000000000000000000000000000000000000000000000000 PUSH1 0x0 MSTORE PUSH1 0x21 PUSH1 0x4 MSTORE PUSH1 0x24 PUSH1 0x0 REVERT JUMPDEST PUSH2 0x32A DUP1 PUSH2 0x84 PUSH1 0x0 CODECOPY PUSH1 0x0 RETURN INVALID PUSH1 0x80 PUSH1 0x40 MSTORE CALLVALUE DUP1 ISZERO PUSH2 0x10 JUMPI PUSH1 0x0 DUP1 REVERT JUMPDEST POP PUSH1 0x4 CALLDATASIZE LT PUSH2 0x4C JUMPI PUSH1 0x0 CALLDATALOAD PUSH1 0xE0 SHR DUP1 PUSH4 0x1AA35610 EQ PUSH2 0x51 JUMPI DUP1 PUSH4 0x62A09477 EQ PUSH2 0x6F JUMPI DUP1 PUSH4 0x8DA5CB5B EQ PUSH2 0x79 JUMPI DUP1 PUSH4 0xBA13A572 EQ PUSH2 0x83 JUMPI JUMPDEST PUSH1 0x0 DUP1 REVERT JUMPDEST PUSH2 0x59 PUSH2 0xA1 JUMP JUMPDEST PUSH1 0x40 MLOAD PUSH2 0x66 SWAP2 SWAP1 PUSH2 0x24D JUMP JUMPDEST PUSH1 0x40 MLOAD DUP1 SWAP2 SUB SWAP1 RETURN JUMPDEST PUSH2 0x77 PUSH2 0xB2 JUMP JUMPDEST STOP JUMPDEST PUSH2 0x81 PUSH2 0x147 JUMP JUMPDEST STOP JUMPDEST PUSH2 0x8B PUSH2 0x1D0 JUMP JUMPDEST PUSH1 0x40 MLOAD PUSH2 0x98 SWAP2 SWAP1 PUSH2 0x281 JUMP JUMPDEST PUSH1 0x40 MLOAD DUP1 SWAP2 SUB SWAP1 RETURN JUMPDEST PUSH1 0x0 DUP1 SLOAD SWAP1 PUSH2 0x100 EXP SWAP1 DIV PUSH1 0xFF AND DUP2 JUMP JUMPDEST PUSH1 0x0 PUSH1 0x2 DUP2 GT ISZERO PUSH2 0xC6 JUMPI PUSH2 0xC5 PUSH2 0x1D6 JUMP JUMPDEST JUMPDEST PUSH1 0x0 DUP1 SLOAD SWAP1 PUSH2 0x100 EXP SWAP1 DIV PUSH1 0xFF AND PUSH1 0x2 DUP2 GT ISZERO PUSH2 0xE6 JUMPI PUSH2 0xE5 PUSH2 0x1D6 JUMP JUMPDEST JUMPDEST SUB PUSH2 0x11A JUMPI PUSH1 0x1 PUSH1 0x0 DUP1 PUSH2 0x100 EXP DUP2 SLOAD DUP2 PUSH1 0xFF MUL NOT AND SWAP1 DUP4 PUSH1 0x2 DUP2 GT ISZERO PUSH2 0x110 JUMPI PUSH2 0x10F PUSH2 0x1D6 JUMP JUMPDEST JUMPDEST MUL OR SWAP1 SSTORE POP PUSH2 0x145 JUMP JUMPDEST PUSH1 0x0 DUP1 PUSH1 0x0 PUSH2 0x100 EXP DUP2 SLOAD DUP2 PUSH1 0xFF MUL NOT AND SWAP1 DUP4 PUSH1 0x2 DUP2 GT ISZERO PUSH2 0x13F JUMPI PUSH2 0x13E PUSH2 0x1D6 JUMP JUMPDEST JUMPDEST MUL OR SWAP1 SSTORE POP JUMPDEST JUMP JUMPDEST PUSH1 0x0 PUSH1 0x2 DUP2 GT ISZERO PUSH2 0x15B JUMPI PUSH2 0x15A PUSH2 0x1D6 JUMP JUMPDEST JUMPDEST PUSH1 0x0 DUP1 SLOAD SWAP1 PUSH2 0x100 EXP SWAP1 DIV PUSH1 0xFF AND PUSH1 0x2 DUP2 GT ISZERO PUSH2 0x17B JUMPI PUSH2 0x17A PUSH2 0x1D6 JUMP JUMPDEST JUMPDEST SUB PUSH2 0x199 JUMPI PUSH1 0x1 PUSH1 0x0 DUP2 SLOAD DUP1 SWAP3 SWAP2 SWAP1 PUSH2 0x193 SWAP1 PUSH2 0x2CB JUMP JUMPDEST SWAP2 SWAP1 POP SSTORE POP JUMPDEST PUSH1 0x0 PUSH1 0x1 SLOAD SUB PUSH2 0x1CE JUMPI PUSH1 0x1 PUSH1 0x0 DUP1 PUSH2 0x100 EXP DUP2 SLOAD DUP2 PUSH1 0xFF MUL NOT AND SWAP1 DUP4 PUSH1 0x2 DUP2 GT ISZERO PUSH2 0x1C8 JUMPI PUSH2 0x1C7 PUSH2 0x1D6 JUMP JUMPDEST JUMPDEST MUL OR SWAP1 SSTORE POP JUMPDEST JUMP JUMPDEST PUSH1 0x1 SLOAD DUP2 JUMP JUMPDEST PUSH32 0x4E487B7100000000000000000000000000000000000000000000000000000000 PUSH1 0x0 MSTORE PUSH1 0x21 PUSH1 0x4 MSTORE PUSH1 0x24 PUSH1 0x0 REVERT JUMPDEST PUSH1 0x3 DUP2 LT PUSH2 0x216 JUMPI PUSH2 0x215 PUSH2 0x1D6 JUMP JUMPDEST JUMPDEST POP JUMP JUMPDEST PUSH1 0x0 DUP2 SWAP1 POP PUSH2 0x227 DUP3 PUSH2 0x205 JUMP JUMPDEST SWAP2 SWAP1 POP JUMP JUMPDEST PUSH1 0x0 PUSH2 0x237 DUP3 PUSH2 0x219 JUMP JUMPDEST SWAP1 POP SWAP2 SWAP1 POP JUMP JUMPDEST PUSH2 0x247 DUP2 PUSH2 0x22C JUMP JUMPDEST DUP3 MSTORE POP POP JUMP JUMPDEST PUSH1 0x0 PUSH1 0x20 DUP3 ADD SWAP1 POP PUSH2 0x262 PUSH1 0x0 DUP4 ADD DUP5 PUSH2 0x23E JUMP JUMPDEST SWAP3 SWAP2 POP POP JUMP JUMPDEST PUSH1 0x0 DUP2 SWAP1 POP SWAP2 SWAP1 POP JUMP JUMPDEST PUSH2 0x27B DUP2 PUSH2 0x268 JUMP JUMPDEST DUP3 MSTORE POP POP JUMP JUMPDEST PUSH1 0x0 PUSH1 0x20 DUP3 ADD SWAP1 POP PUSH2 0x296 PUSH1 0x0 DUP4 ADD DUP5 PUSH2 0x272 JUMP JUMPDEST SWAP3 SWAP2 POP POP JUMP JUMPDEST PUSH32 0x4E487B7100000000000000000000000000000000000000000000000000000000 PUSH1 0x0 MSTORE PUSH1 0x11 PUSH1 0x4 MSTORE PUSH1 0x24 PUSH1 0x0 REVERT JUMPDEST PUSH1 0x0 PUSH2 0x2D6 DUP3 PUSH2 0x268 JUMP JUMPDEST SWAP2 POP PUSH1 0x0 DUP3 SUB PUSH2 0x2E9 JUMPI PUSH2 0x2E8 PUSH2 0x29C JUMP JUMPDEST JUMPDEST PUSH1 0x1 DUP3 SUB SWAP1 POP SWAP2 SWAP1 POP JUMP INVALID LOG2 PUSH5 0x6970667358 0x22 SLT KECCAK256 ADDMOD SWAP15 DUP11 0x2D GASLIMIT DUP8 0x25 0xD3 LOG0 0xD4 XOR 0xB6 0xD 0x23 0x23 MSTORE8 SWAP14 BASEFEE LOG3 BASEFEE 0xCA 0xDA 0xDA CALLER SWAP2 CALLVALUE 0xAF 0xC0 0xD8 XOR 0xCC MLOAD PUSH5 0x736F6C6343 STOP ADDMOD SLT STOP CALLER "
				},
				"gasEstimates": {
					"creation": {
						"codeDepositCost": "162000",
						"executionCost": "46613",
						"totalCost": "208613"
					},
					"external": {
						"changeOwner()": "26650",
						"lottery()": "2473",
						"owner()": "53141",
						"u1()": "2535"
					}
				},
				"methodIdentifiers": {
					"changeOwner()": "62a09477",
					"lottery()": "ba13a572",
					"owner()": "8da5cb5b",
					"u1()": "1aa35610"
				}
			},
			"storageLayout": {
				"storage": [
					{
						"astId": 10,
						"contract": "important/enum.sol:enum1",
						"label": "u1",
						"offset": 0,
						"slot": "0",
						"type": "t_enum(user)5"
					},
					{
						"astId": 13,
						"contract": "important/enum.sol:enum1",
						"label": "lottery",
						"offset": 0,
						"slot": "1",
						"type": "t_uint256"
					}
				],
				"types": {
					"t_enum(user)5": {
						"encoding": "inplace",
						"label": "enum enum1.user",
						"numberOfBytes": "1"
					},
					"t_uint256": {
						"encoding": "inplace",
						"label": "uint256",
						"numberOfBytes": "32"
					}
				}
			},
			"userdoc": {
				"kind": "user",
				"methods": {},
				"version": 1
			}
		}
	}
}