{
	"important/local.sol": {
		"local": {
			"abi": [
				{
					"inputs": [],
					"name": "setter",
					"outputs": [],
					"stateMutability": "nonpayable",
					"type": "function"
				}
			],
			"devdoc": {
				"custom:dev-run-script": "identity.sol",
				"details": "ContractDescription",
				"kind": "dev",
				"methods": {},
				"title": "ContractName",
				"version": 1
			},
			"evm": {
				"assembly": "    /* \"important/local.sol\":180:286  contract local... */\n  mstore(0x40, 0x80)\n    /* \"important/local.sol\":215:218  255 */\n  0xff\n    /* \"important/local.sol\":203:218  uint8 money=255 */\n  0x00\n  dup1\n  0x0100\n  exp\n  dup2\n  sload\n  dup2\n  0xff\n  mul\n  not\n  and\n  swap1\n  dup4\n  0xff\n  and\n  mul\n  or\n  swap1\n  sstore\n  pop\n    /* \"important/local.sol\":180:286  contract local... */\n  callvalue\n  dup1\n  iszero\n  tag_1\n  jumpi\n  0x00\n  dup1\n  revert\ntag_1:\n  pop\n  dataSize(sub_0)\n  dup1\n  dataOffset(sub_0)\n  0x00\n  codecopy\n  0x00\n  return\nstop\n\nsub_0: assembly {\n        /* \"important/local.sol\":180:286  contract local... */\n      mstore(0x40, 0x80)\n      callvalue\n      dup1\n      iszero\n      tag_1\n      jumpi\n      0x00\n      dup1\n      revert\n    tag_1:\n      pop\n      jumpi(tag_2, lt(calldatasize, 0x04))\n      shr(0xe0, calldataload(0x00))\n      dup1\n      0x3f3108f7\n      eq\n      tag_3\n      jumpi\n    tag_2:\n      0x00\n      dup1\n      revert\n        /* \"important/local.sol\":227:283  function setter() public{... */\n    tag_3:\n      tag_4\n      tag_5\n      jump\t// in\n    tag_4:\n      stop\n    tag_5:\n        /* \"important/local.sol\":274:275  1 */\n      0x01\n        /* \"important/local.sol\":268:273  money */\n      0x00\n      dup1\n      sload\n      swap1\n      0x0100\n      exp\n      swap1\n      div\n      0xff\n      and\n        /* \"important/local.sol\":268:275  money+1 */\n      tag_7\n      swap2\n      swap1\n      tag_8\n      jump\t// in\n    tag_7:\n        /* \"important/local.sol\":262:267  money */\n      0x00\n      dup1\n        /* \"important/local.sol\":262:275  money=money+1 */\n      0x0100\n      exp\n      dup2\n      sload\n      dup2\n      0xff\n      mul\n      not\n      and\n      swap1\n      dup4\n      0xff\n      and\n      mul\n      or\n      swap1\n      sstore\n      pop\n        /* \"important/local.sol\":227:283  function setter() public{... */\n      jump\t// out\n        /* \"#utility.yul\":7:93   */\n    tag_9:\n        /* \"#utility.yul\":42:49   */\n      0x00\n        /* \"#utility.yul\":82:86   */\n      0xff\n        /* \"#utility.yul\":75:80   */\n      dup3\n        /* \"#utility.yul\":71:87   */\n      and\n        /* \"#utility.yul\":60:87   */\n      swap1\n      pop\n        /* \"#utility.yul\":7:93   */\n      swap2\n      swap1\n      pop\n      jump\t// out\n        /* \"#utility.yul\":99:279   */\n    tag_10:\n        /* \"#utility.yul\":147:224   */\n      0x4e487b7100000000000000000000000000000000000000000000000000000000\n        /* \"#utility.yul\":144:145   */\n      0x00\n        /* \"#utility.yul\":137:225   */\n      mstore\n        /* \"#utility.yul\":244:248   */\n      0x11\n        /* \"#utility.yul\":241:242   */\n      0x04\n        /* \"#utility.yul\":234:249   */\n      mstore\n        /* \"#utility.yul\":268:272   */\n      0x24\n        /* \"#utility.yul\":265:266   */\n      0x00\n        /* \"#utility.yul\":258:273   */\n      revert\n        /* \"#utility.yul\":285:473   */\n    tag_8:\n        /* \"#utility.yul\":323:326   */\n      0x00\n        /* \"#utility.yul\":342:360   */\n      tag_15\n        /* \"#utility.yul\":358:359   */\n      dup3\n        /* \"#utility.yul\":342:360   */\n      tag_9\n      jump\t// in\n    tag_15:\n        /* \"#utility.yul\":337:360   */\n      swap2\n      pop\n        /* \"#utility.yul\":374:392   */\n      tag_16\n        /* \"#utility.yul\":390:391   */\n      dup4\n        /* \"#utility.yul\":374:392   */\n      tag_9\n      jump\t// in\n    tag_16:\n        /* \"#utility.yul\":369:392   */\n      swap3\n      pop\n        /* \"#utility.yul\":415:416   */\n      dup3\n        /* \"#utility.yul\":412:413   */\n      dup3\n        /* \"#utility.yul\":408:417   */\n      add\n        /* \"#utility.yul\":401:417   */\n      swap1\n      pop\n        /* \"#utility.yul\":438:442   */\n      0xff\n        /* \"#utility.yul\":433:436   */\n      dup2\n        /* \"#utility.yul\":430:443   */\n      gt\n        /* \"#utility.yul\":427:466   */\n      iszero\n      tag_17\n      jumpi\n        /* \"#utility.yul\":446:464   */\n      tag_18\n      tag_10\n      jump\t// in\n    tag_18:\n        /* \"#utility.yul\":427:466   */\n    tag_17:\n        /* \"#utility.yul\":285:473   */\n      swap3\n      swap2\n      pop\n      pop\n      jump\t// out\n\n    auxdata: 0xa2646970667358221220b2e46fc8b3211098b5bcf4faf1e6669e74cdc2885acbd8ab0c8cb265dccdb8d564736f6c63430008140033\n}\n",
				"bytecode": {
					"linkReferences": {},
					"object": "608060405260ff5f806101000a81548160ff021916908360ff160217905550348015610029575f80fd5b5060ff806100365f395ff3fe6080604052348015600e575f80fd5b50600436106026575f3560e01c80633f3108f714602a575b5f80fd5b60306032565b005b60015f8054906101000a900460ff1660499190609c565b5f806101000a81548160ff021916908360ff160217905550565b5f60ff82169050919050565b7f4e487b71000000000000000000000000000000000000000000000000000000005f52601160045260245ffd5b5f60a4826063565b915060ad836063565b9250828201905060ff81111560c35760c2606f565b5b9291505056fea2646970667358221220b2e46fc8b3211098b5bcf4faf1e6669e74cdc2885acbd8ab0c8cb265dccdb8d564736f6c63430008140033",
					"opcodes": "PUSH1 0x80 PUSH1 0x40 MSTORE PUSH1 0xFF PUSH0 DUP1 PUSH2 0x100 EXP DUP2 SLOAD DUP2 PUSH1 0xFF MUL NOT AND SWAP1 DUP4 PUSH1 0xFF AND MUL OR SWAP1 SSTORE POP CALLVALUE DUP1 ISZERO PUSH2 0x29 JUMPI PUSH0 DUP1 REVERT JUMPDEST POP PUSH1 0xFF DUP1 PUSH2 0x36 PUSH0 CODECOPY PUSH0 RETURN INVALID PUSH1 0x80 PUSH1 0x40 MSTORE CALLVALUE DUP1 ISZERO PUSH1 0xE JUMPI PUSH0 DUP1 REVERT JUMPDEST POP PUSH1 0x4 CALLDATASIZE LT PUSH1 0x26 JUMPI PUSH0 CALLDATALOAD PUSH1 0xE0 SHR DUP1 PUSH4 0x3F3108F7 EQ PUSH1 0x2A JUMPI JUMPDEST PUSH0 DUP1 REVERT JUMPDEST PUSH1 0x30 PUSH1 0x32 JUMP JUMPDEST STOP JUMPDEST PUSH1 0x1 PUSH0 DUP1 SLOAD SWAP1 PUSH2 0x100 EXP SWAP1 DIV PUSH1 0xFF AND PUSH1 0x49 SWAP2 SWAP1 PUSH1 0x9C JUMP JUMPDEST PUSH0 DUP1 PUSH2 0x100 EXP DUP2 SLOAD DUP2 PUSH1 0xFF MUL NOT AND SWAP1 DUP4 PUSH1 0xFF AND MUL OR SWAP1 SSTORE POP JUMP JUMPDEST PUSH0 PUSH1 0xFF DUP3 AND SWAP1 POP SWAP2 SWAP1 POP JUMP JUMPDEST PUSH32 0x4E487B7100000000000000000000000000000000000000000000000000000000 PUSH0 MSTORE PUSH1 0x11 PUSH1 0x4 MSTORE PUSH1 0x24 PUSH0 REVERT JUMPDEST PUSH0 PUSH1 0xA4 DUP3 PUSH1 0x63 JUMP JUMPDEST SWAP2 POP PUSH1 0xAD DUP4 PUSH1 0x63 JUMP JUMPDEST SWAP3 POP DUP3 DUP3 ADD SWAP1 POP PUSH1 0xFF DUP2 GT ISZERO PUSH1 0xC3 JUMPI PUSH1 0xC2 PUSH1 0x6F JUMP JUMPDEST JUMPDEST SWAP3 SWAP2 POP POP JUMP INVALID LOG2 PUSH5 0x6970667358 0x22 SLT KECCAK256 0xB2 0xE4 PUSH16 0xC8B3211098B5BCF4FAF1E6669E74CDC2 DUP9 GAS 0xCB 0xD8 0xAB 0xC DUP13 0xB2 PUSH6 0xDCCDB8D56473 PUSH16 0x6C634300081400330000000000000000 "
				},
				"gasEstimates": {
					"creation": {
						"codeDepositCost": "51000",
						"executionCost": "24363",
						"totalCost": "75363"
					},
					"external": {
						"setter()": "infinite"
					}
				},
				"methodIdentifiers": {
					"setter()": "3f3108f7"
				}
			},
			"storageLayout": {
				"storage": [
					{
						"astId": 5,
						"contract": "important/local.sol:local",
						"label": "money",
						"offset": 0,
						"slot": "0",
						"type": "t_uint8"
					}
				],
				"types": {
					"t_uint8": {
						"encoding": "inplace",
						"label": "uint8",
						"numberOfBytes": "1"
					}
				}
			},
			"userdoc": {
				"kind": "user",
				"methods": {},
				"version": 1
			}
		}
	}
}